:100000000C9437570C9467570C9467570C946757A8
:100010000C9467570C9467570C9467570C94675768
:100020000C9467570C9467570C9467570C94675758
:100030000C9467570C9467570C9467570C94675748
:100040000C9467570C9467570C9467570C94675738
:100050000C9467570C9467570C9467570C940E5E7A
:100060000C9467570C9467570C9467570C94675718
:100070000C9467570C9467570C9467570C94675708
:100080000C9467570C9467570C9467570C946757F8
:100090000C9467570C9467570C9467570C946757E8
:1000A0000C9467570C9467570C9467570C946757D8
:1000B0000C9467570C9467570C9467570C946757C8
:1000C0000C9467570C9467570C9467570C946757B8
:1000D0000C9467570C9467570C9467570C946757A8
:1000E0000C946757AB57AE579D57A157A757E55785
:1000F000B257B657BC57C057C457CA57CE57D25736
:10010000E557D857DC57E057500C4100500C4100E0
:10011000500C4100500C4100500C4100500C41006B
:1001200000000000500C4100500C4100500C4100F8
:10013000500C4100500C4100500C4100500C41004B
:10014000500C4100500C4100500C4100500C41003B
:1001500000000000500C4100500C4100500C4100C8
:10016000500C4100500C4100500C4100500C41001B
:10017000500C4100500C4100500C4100500C41000B
:10018000500C41000000000000000000500C410035
:10019000500C4100500C4100500C4100500C4100EB
:1001A000500C4100500C4100500C4100500C4100DB
:1001B0000000000000000000500C4100500C410005
:1001C000500C4100500C4100500C4100500C4100BB
:1001D000500C4100500C4100500C4100500C4100AB
:1001E000500C4100500C41000000000039EFFF00AE
:1001F00000000000500C4100500C4100500C410028
:10020000500C4100500C4100500C4100500C41007A
:100210000000000039EFFF0000000000500C41001A
:10022000500C4100500C4100500C4100500C41005A
:10023000500C4100500C4100500C4100500C41004A
:10024000500C4100500C4100500C410000000000D7
:1002500039EFFF000000000000000000500C4100DA
:10026000500C4100500C4100500C4100500C41001A
:10027000000000000000000039EFFF000000000057
:10028000500C4100500C4100500C4100500C4100FA
:10029000500C4100500C4100500C4100500C4100EA
:1002A000500C4100500C4100500C41000000000077
:1002B00000496B0000496B0000A2F70000496B0089
:1002C00000000000500C4100500C4100500C410057
:1002D0000000000000496B0000A2F70000496B001D
:1002E00000496B0000000000500C4100500C410020
:1002F000500C4100500C4100500C4100500C41008A
:10030000500C4100500C4100500C41000000000016
:1003100000496B0000A2F7007B345A007B345A007E
:1003200000A2F70000000000500C4100500C4100FA
:10033000500C41000000000000A2F7007B345A007E
:100340007B345A0000A2F70000496B000000000057
:10035000500C4100500C4100500C4100500C410029
:10036000500C4100500C4100500C410000000000B6
:1003700000496B0000A2F7004A203100BD619400E3
:10038000BD6194007B345A0000496B0000000000FE
:1003900000000000000000004A2031007B345A00B9
:1003A000BD619400BD6194004A20310000A2F700B5
:1003B00000496B0000000000500C4100500C41004F
:1003C000500C4100500C4100500C4100500C4100B9
:1003D0000000000018A2DE004A2031004536CF00A0
:1003E0004A2031007B345A004A2031004A20310033
:1003F0007B345A00BD6194007B345A004A2031009E
:100400004A2031007B345A004A2031004536CF0063
:100410004A20310018A2DE0000000000500C41000C
:10042000500C4100500C4100500C4100500C410058
:10043000500C4100000000007B345A00100C5A00A0
:1004400021149C0021149C0021149C00100C5A00C3
:100450004A2031002C131D007B345A002C131D0040
:100460004A203100100C5A0021149C0021149C00D9
:1004700021149C00100C5A007B345A00000000002C
:10048000500C4100500C4100500C4100500C4100F8
:100490000000000000000000000000007B345A0053
:1004A00021149C00080C0800080C0800080C080027
:1004B000080C0800BD6194004A2031004A20310038
:1004C0004A203100BD619400080C0800080C0800A7
:1004D000080C0800080C080021149C007B345A000A
:1004E000000000000000000000000000500C41006F
:1004F0000000000039EFFF0018A2DE001069940030
:10050000BD6194004A20310021149C00429EF700F6
:10051000229F300010551800080C080021149C0080
:100520004A20310021149C00080C080010551800C6
:10053000229F30000C73D60021149C004A20310009
:10054000BD6194001069940018A2DE0039EFFF002D
:10055000000000000000000000000000000000009B
:1005600000000000BD6194004A203100100C5A00C8
:10057000429EF7001055180010551800080C08008E
:10058000100C5A004A203100100C5A00080C0800C8
:100590001055180010551800429EF700100C5A0014
:1005A0004A203100BD6194000000000000000000FE
:1005B0000000000000000000500C4100500C410001
:1005C00000000000000000004A203100BD619400DE
:1005D00021149C000C73D600429EF700429EF70047
:1005E000080C0800100C5A007B345A00100C5A00FA
:1005F000080C08000C73D600429EF7000C73D6005E
:1006000021149C00BD6194004A20310000000000CC
:1006100000000000500C4100500C4100500C410003
:100620000000000039EFFF0018A2DE00000000000B
:100630004A203100BD619400BD6194004A20310020
:100640004536CF004A20310007052D003928E70044
:1006500007052D004A2031004536CF004A203100E1
:10066000BD619400BD6194004A203100000000008B
:1006700018A2DE0039EFFF0000000000500C41001E
:10068000000000000000000000000000000000006A
:1006900000000000000000004A2031007B345A00B6
:1006A0007B345A00BD6194004A2031003928E700AC
:1006B00021149C003928E7004A203100BD619400D4
:1006C0007B345A007B345A004A203100000000007D
:1006D000000000000000000000000000000000001A
:1006E00000000000500C4100500C4100500C410033
:1006F000500C41000000000039EFFF0018A2DE009E
:10070000BD6194004A2031004A2031004A20310066
:100710000000000021149C00000000004A2031006D
:100720004A2031004A203100BD61940018A2DE0049
:1007300039EFFF0000000000500C4100500C410058
:10074000500C4100500C4100500C4100500C410035
:10075000500C4100000000000000000000000000FC
:1007600000000000000000004A2031004A20310053
:100770003928E7003928E70021149C003928E700D0
:100780003928E7004A2031004A20310000000000EB
:100790000000000000000000000000000000000059
:1007A000500C4100500C4100500C4100500C4100D5
:1007B000500C4100500C4100500C4100500C4100C5
:1007C000500C4100500C41000000000039EFFF00C8
:1007D000100C5A0021149C000000000021149C0001
:1007E0000000000021149C00100C5A0039EFFF009B
:1007F00000000000500C4100500C4100500C410022
:10080000500C4100500C4100500C4100500C410074
:10081000500C4100500C4100500C4100500C410064
:10082000500C4100500C41000000000039EFFF0067
:1008300018A2DE0000000000000000003928E700D8
:1008400021149C003928E70000000000000000008F
:1008500018A2DE0039EFFF0000000000500C41003C
:10086000500C4100500C4100500C4100500C410014
:10087000500C4100500C4100500C4100500C410004
:10088000500C4100500C4100500C41000000000091
:100890001069940000000000500C4100500C410011
:1008A00000000000100C5A0000000000500C410035
:1008B000500C41000000000010699400000000008E
:1008C000500C4100500C4100500C4100500C4100B4
:1008D000500C4100500C4100500C4100500C4100A4
:1008E000500C4100500C4100500C4100500C410094
:1008F0000000000000000000500C4100500C4100BE
:10090000500C4100500C410000000000500C410010
:10091000500C4100500C4100500C41000000000000
:1009200000000000500C4100500C4100500C4100F0
:10093000500C4100500C4100500C410054545400E4
:1009400054545400545454005454540054545400B7
:1009500054545400545454005454540054545400A7
:1009600054545400545454003D626F003D626F0073
:10097000A2FBFC00545454005454540054545400EA
:100980005454540054545400545454005454540077
:100990005454540054545400545454005454540067
:1009A0005454540054545400545454005454540057
:1009B0005454540054545400545454005454540047
:1009C0005454540054545400545454008AE4F800CD
:1009D0003D6775003D6775005454540054545400ED
:1009E0005454540054545400545454005454540017
:1009F0005454540054545400545454005454540007
:100A000054545400545454005454540054545400F6
:100A100054545400545454005454540054545400E6
:100A20005454540054545400545454003D677500B9
:100A30003D626F00A2FBFC008AE4F80082D8F5005A
:100A400054545400545454005454540054545400B6
:100A500054545400545454005454540054545400A6
:100A60005454540054545400545454005454540096
:100A70005454540054545400545454005454540086
:100A80005454540054545400545454005454540076
:100A90007ED3F2008AE4F8008AE4F8003D6775002E
:100AA0003D67750054545400545454005454540039
:100AB0005454540054545400545454005454540046
:100AC0005454540054545400545454005454540036
:100AD0005454540054545400545454005454540026
:100AE0005454540054545400545454005454540016
:100AF0003D6775003D67750098F6FB0082D8F500EC
:100B00007ED3F20082D8F50082D8F5005454540008
:100B100054545400545454005454540054545400E5
:100B200054545400545454005454540054545400D5
:100B300054545400545454005454540054545400C5
:100B400054545400545454005454540054545400B5
:100B5000545454007DD1ED0082D8F5007ED3F200CC
:100B60007ED3F2007ED3F2003D6775003D677500CD
:100B70005454540054545400545454005454540085
:100B80005454540054545400545454005454540075
:100B90005454540054545400545454005454540065
:100BA0005454540054545400545454005454540055
:100BB000545454003D6775003D626F0093ECF9009A
:100BC0008AE4F80082D8F50081CFF0007DCFF000F4
:100BD0007DD1ED007DCFF0005454540054545400A6
:100BE0005454540054545400545454005454540015
:100BF0005454540054545400545454005454540005
:100C000054545400545454005454540054545400F4
:100C100054545400545454007DCFF00081CCE8006B
:100C20007DD1ED0081CFF00082D8F50082D8F500AB
:100C300082D8F5003A5E6A0043636E005454540053
:100C400054545400545454005454540054545400B4
:100C500054545400545454005454540054545400A4
:100C60005454540054545400545454005454540094
:100C700054545400545454003D6775003A5E6A0061
:100C800098F6FB007ED3F2007ED3F20081CFF00015
:100C900079CAE6007DD1ED0079CAE60072B5CC00D4
:100CA0004B849600545454005454540054545400EB
:100CB0005454540054545400545454005454540044
:100CC0005454540054545400545454005454540034
:100CD00054545400545454005454540098F6FB0097
:100CE0003D707F003D6775005454540054545400C7
:100CF00054545400545454006C6F7100517E900051
:100D00003A5E6A003D6775005454540054545400D0
:100D100054545400545454005454540054545400E3
:100D200054545400545454005454540054545400D3
:100D30005454540054545400545454003D677500A6
:100D40003D67750098F6FB00545454005454540009
:100D5000545454005454540054545400416978007D
:100D60003D6775003D707F006EC3E00074C2DD001A
:100D70005454540054545400545454005454540083
:100D80005454540054545400545454005454540073
:100D90005454540054545400545454005454540063
:100DA00072BCD80072BCD80098F6FB00416978008C
:100DB0003D67750054545400545454005454540026
:100DC0005454540079CAE6007DD1ED003D677500AA
:100DD0003D67750054545400545454005454540006
:100DE0005454540054545400545454005454540013
:100DF0005454540054545400545454005454540003
:100E00003D6775003D67750092E2EE0079CAE60025
:100E100079CAE60071AEC5005454540054545400CD
:100E20003D67750041697800416978006EC1DA005C
:100E300072BCD80072BCD8006EB8D30054545400B1
:100E400054545400545454005454540054545400B2
:100E500054545400545454005454540054545400A2
:100E6000545454006EB8D3006EC1DA0072BCD8007E
:100E700072BCD80098F6FB003C6E80003C6E80008F
:100E8000545454005454540079CAE60072BCD8003B
:100E900079CAE6007DD1ED003D6775003D626F00C7
:100EA0005454540054545400545454005454540052
:100EB0005454540054545400545454005454540042
:100EC000545454003C6E80003D67750083D5EB00A0
:100ED00079CAE60079CAE60079CAE60074C2DD0084
:100EE00072BCD8003D6775003D67750049707E0093
:100EF00072B5CC0072BCD8006EB8D30075BFE000EC
:100F000071AEC5006CB3CC0054545400545454001A
:100F100054545400545454005454540054545400E1
:100F20005454540054545400608CA0006CB3CC0052
:100F30006CB3CC006EB8D3006CB3CC0072B5CC00EF
:100F40008BE1EE00416978004777880072BCD800D9
:100F500072BCD80074C2DD0074C2DD0074C2DD0052
:100F600079CAE6003D6775003D677500545454002A
:100F70005454540054545400545454005454540081
:100F800054545400545454003D6775003D67750037
:100F900074C2DD0072BCD80074C2DD0074C2DD0012
:100FA00072BCD80072BCD80075BFE00072BCD8001B
:100FB00049707E0072BCD8006EB8D300717B7E0091
:100FC0005454540054545400545454005454540031
:100FD0005454540054545400545454005454540021
:100FE0005454540054545400545454005454540011
:100FF0005454540054545400545454005454540001
:1010000054545400545454005454540054545400F0
:1010100054545400677E860075BFE00075BFE00041
:1010200072BCD80072BCD80074C2DD0079CAE60078
:1010300041697800676A6A0054545400545454005B
:1010400054545400545454005454540054545400B0
:101050005454540081CFF00075BFE0005996A900A8
:101060005454540054545400545454005454540090
:101070005454540054545400545454005454540080
:101080005454540054545400545454005454540070
:101090005454540054545400545454005454540060
:1010A0005454540054545400545454005454540050
:1010B0005454540054545400545454005454540040
:1010C0005454540054545400545454005454540030
:1010D0005454540054545400545454005454540020
:1010E0005454540054545400545454005454540010
:1010F0005454540054545400676A6A0054545400C1
:1011000054545400545454005454540054545400EF
:1011100054545400545454005454540054545400DF
:1011200054545400545454005454540054545400CF
:1011300054545400545454005454540054545400BF
:1011400054545400545454005454540054545400AF
:10115000545454005454540054545400545454009F
:10116000545454005454540054545400545454008F
:10117000545454005454540054545400545454007F
:10118000545454005454540054545400545454006F
:10119000545454005454540054545400436F800029
:1011A00044707F0044707F005454540054545400E1
:1011B000545454005454540054545400545454003F
:1011C000545454005454540054545400545454002F
:1011D000545454005454540054545400545454001F
:1011E000545454005454540054545400545454000F
:1011F0005454540054545400545454006E7E83008C
:10120000A4FDFC00436F8000436F80006C7B800076
:1012100054545400545454005454540054545400DE
:1012200054545400545454005454540054545400CE
:1012300054545400545454005454540054545400BE
:1012400054545400545454005454540054545400AE
:10125000545454005454540054545400545454009E
:10126000426D7D00436F8000436F800071BCD700EA
:1012700075C1DD0054545400545454005454540067
:10128000545454005454540054545400545454006E
:10129000545454005454540054545400545454005E
:1012A000545454005454540054545400545454004E
:1012B000545454005454540054545400545454003E
:1012C0006E7A7D0071BCD70079C8E300A4FDFC00F4
:1012D000436F80003F6A7A00626364005454540094
:1012E000545454005454540054545400545454000E
:1012F00054545400545454005454540054545400FE
:1013000054545400545454005454540054545400ED
:1013100054545400545454005454540054545400DD
:1013200054545400426D7D00436F800044707F0030
:1013300079C8E30075C1DD0071BCD7006EB8D2007A
:1013400054545400545454005454540054545400AD
:10135000545454005454540054545400545454009D
:10136000545454005454540054545400545454008D
:10137000545454005454540054545400545454007D
:1013800054545400545454006EB8D20071BCD70069
:1013900071BCD70075C1DD006EB8D200436F80000C
:1013A000426D7D005454540054545400545454001D
:1013B000545454005454540054545400545454003D
:1013C000545454005454540054545400545454002D
:1013D000545454005454540054545400545454001D
:1013E0005454540054545400426D7D00436F8000A7
:1013F000436F800075C1DD0071BCD7006EB8D200AC
:101400006EB8D2006EB8D2006BB3CC005454540006
:1014100054545400545454005454540054545400DC
:1014200054545400545454005454540054545400CC
:1014300054545400545454005454540054545400BC
:101440005454540054545400545454006BB3CC00BE
:101450006BB3CC006EB8D2006EB8D2006EB8D200BA
:1014600071BCD700436F800044707F00426D7D00E7
:10147000545454005454540054545400545454007C
:10148000545454005454540054545400545454006C
:10149000545454005454540054545400545454005C
:1014A0005454540054545400545454003F6A7A0025
:1014B000426D7D00426D7D0085DCF20071BCD7007D
:1014C0006EB8D2006BB3CC006BB3CC0067ABC50079
:1014D0003F6E8000558DA200545454005454540063
:1014E000545454005454540054545400545454000C
:1014F00054545400545454005454540054545400FC
:1015000054545400545454005454540054545400EB
:1015100067ABC5004E82950047758600477586000B
:1015200054545400545454006F7E840067ABC5007B
:1015300044707F00426D7D003F6A7A00545454002D
:1015400054545400545454005454540054545400AB
:10155000545454005454540054545400545454009B
:10156000545454005454540054545400545454008B
:10157000426D7D00426D7D00426D7D0091EDF90070
:10158000545454005454540054545400626464003D
:1015900047758600477586004775860067ABC500AE
:1015A0005E9DB40054545400545454005454540098
:1015B000545454005454540054545400545454003B
:1015C000545454005454540054545400545454002B
:1015D0005454540067ABC50062A4BB0075C1DD0064
:1015E0004775860047758600477586005454540039
:1015F0005454540062A4BB0071BCD700426D7D00FE
:10160000426D7D00426D7D0054545400545454008A
:1016100054545400545454005454540054545400DA
:1016200054545400545454005454540054545400CA
:101630005454540054545400426D7D00426D7D005A
:1016400098F7FB006EB8D2006EB8D2005454540024
:1016500054545400477586004775860047758600C8
:1016600067ABC50062A4BB005FA0B70070787C00C8
:10167000545454005454540054545400545454007A
:10168000545454005454540054545400545454006A
:1016900054545400545454005FA0B70062A4BB00DB
:1016A00062A4BB0062A4BB00A4FDFC0047758600D9
:1016B00047758600477586006BB3CC006BB3CC00D2
:1016C0006EB8D2006EB8D20044707F00426D7D00CB
:1016D0003F6A7A00545454005454540054545400F3
:1016E000545454005454540054545400545454000A
:1016F000545454005454540054545400426D7D00CA
:10170000426D7D0075C1DD006EB8D2006BB3CC00B8
:101710006BB3CC006BB3CC00436F80004775860081
:101720004E82950062A4BB005FA0B70062A4BB001C
:101730005FA0B700609FB5005A5A5B005454540034
:1017400054545400545454005454540054545400A9
:101750005454540054545400545454005454540099
:10176000545454006C7B80005FA0B70062A4BB009F
:1017700067ABC5008FF0FB004775860067ABC500FF
:1017800067ABC5006BB3CC006BB3CC006BB3CC00C4
:101790006EB8D200426D7D003F6A7A003F6A7A00DF
:1017A0005454540054545400545454005454540049
:1017B0005454540054545400545454005454540039
:1017C000426D7D0044707F00477586006BB3CC008E
:1017D00062A4BB0062A4BB0072B8CD0067ABC500B9
:1017E00062A4BB004775860062A4BB0062808B00C8
:1017F00054545400545454005454540054545400F9
:1018000054545400545454005454540054545400E8
:1018100054545400545454005454540054545400D8
:1018200054545400545454005454540054545400C8
:1018300054545400545454005454540054545400B8
:10184000545454005454540067ABC50067ABC500F2
:101850006BB3CC006BB3CC006BB3CC0075C1DD00B7
:101860003F6A7A003F6A7A00426D7D00545454000A
:101870005454540054545400545454005454540078
:101880005454540054545400426D7D00426D7D0008
:101890006BB3CC006BB3CC0067ABC50054545400A1
:1018A0005454540054545400545454005454540048
:1018B0005454540054545400545454005454540038
:1018C0005454540054545400545454005454540028
:1018D0005454540054545400545454005454540018
:1018E0005454540054545400545454005454540008
:1018F00054545400545454005454540054545400F8
:1019000054545400545454005454540054545400E7
:1019100054545400545454005454540054545400D7
:10192000545454005454540067ABC50054545400EC
:1019300054545400545454005454540054545400B7
:1019400054545400545454005454540054545400A7
:101950005454540054545400545454005454540097
:101960005454540054545400545454005454540087
:101970005454540054545400545454005454540077
:101980005454540054545400545454005454540067
:101990005454540054545400545454005454540057
:1019A0005454540054545400545454005454540047
:1019B0005454540054545400545454005454540037
:1019C000545454005454540054545400558DA2009F
:1019D0005E9CB2005E9CB20062A2B9009AF6FB0067
:1019E0005454540054545400545454005454540007
:1019F00054545400545454005454540054545400F7
:101A000054545400545454005454540054545400E6
:101A100054545400545454005454540054545400D6
:101A200054545400545454005454540054545400C6
:101A30004E82940062A2B90062A2B900609EB40016
:101A40005E9CB200545454005454540054545400F6
:101A50005454540054545400545454005454540096
:101A60005454540054545400545454005454540086
:101A70005454540054545400545454005454540076
:101A80005454540054545400545454005454540066
:101A9000545454005C98AD00609EB40062A2B9003A
:101AA0005E9CB2004E82940054545400545454002E
:101AB0005454540054545400545454005454540036
:101AC0005454540054545400545454005454540026
:101AD0005454540054545400545454005454540016
:101AE0005454540054545400545454005454540006
:101AF000545454004E829400558DA200A7FDFC0062
:101B000062A2B9005E9CB2005E9CB2005C98AD001F
:101B100054545400545454005454540054545400D5
:101B200054545400545454005454540054545400C5
:101B300054545400545454005454540054545400B5
:101B400054545400545454005454540054545400A5
:101B500054545400545454005C98AD005E9CB20040
:101B600062A2B90062A2B900518597004E8294002A
:101B70004E8294005454540054545400545454000D
:101B80005454540054545400545454005454540065
:101B90005454540054545400545454005454540055
:101BA0005454540054545400545454005454540045
:101BB0005454540054545400545454004C7E9100D6
:101BC0004E8294004E82940062A2B900609EB400DE
:101BD0005E9CB2005C98AD005454540054545400C0
:101BE0005454540054545400545454005454540005
:101BF00054545400545454005454540054545400F5
:101C000054545400545454005454540054545400E4
:101C10005454540054545400545454005185970063
:101C20005E9CB200609EB4005E9CB20092EDF80033
:101C30004E8294004E8294004C7E9100697C840018
:101C400054545400545454005454540054545400A4
:101C50005454540054545400545454005454540094
:101C60005454540054545400545454005454540084
:101C70005454540054545400545454005454540074
:101C80004C7E91004C7E91004E808F0051859700D4
:101C900076C3DC005E9CB20062A2B9005E9CB2001A
:101CA0005E9CB20054545400545454005454540094
:101CB0005454540054545400545454005454540034
:101CC0005454540054545400545454005454540024
:101CD0005454540054545400545454005454540014
:101CE000545454005C98AD005C98AD0062A2B900F9
:101CF00067ABC4004E8294004E8294004E829400E2
:101D00005FA0B6006BB2CC0054545400545454003D
:101D100054545400545454005454540054545400D3
:101D200054545400545454005454540054545400C3
:101D300054545400545454005454540054545400B3
:101D40005454540054545400A7FDFC0067ABC40025
:101D500067ABC40067ABC400436F800067ABC400CF
:101D60005E9CB2005E9CB2005E9CB200647C85000A
:101D70005454540054545400545454005454540073
:101D80005454540054545400545454005454540063
:101D90005454540054545400545454005454540053
:101DA00054545400545454005C98AD005C98AD00F9
:101DB0005E9CB20067ABC400A7FDFC005E9CB20055
:101DC00067ABC40067ABC40067ABC4004C7E910036
:101DD000497A8B00545454005454540054545400C1
:101DE0005454540054545400545454005454540003
:101DF00054545400545454005454540054545400F3
:101E0000545454005454540054545400497A8B0090
:101E1000497A8B006BB2CC0067ABC40067ABC400DF
:101E20005FA0B6004E829400609EB4005E9CB2003B
:101E30005E9CB2005E9CB200545454005454540052
:101E400054545400545454005454540054545400A2
:101E50005454540054545400545454005454540092
:101E60005454540054545400545454006B6F700034
:101E70005C98AD005E9CB2005FA0B6005E9CB200B4
:101E80004E829400497A8B0067ABC40067ABC400F4
:101E900076C3DC00497A8B00436F800054545400B1
:101EA0005454540054545400545454005454540042
:101EB0005454540054545400545454005454540032
:101EC0005454540054545400545454005454540022
:101ED000436F8000497A8B00497A8B007ED1E800FD
:101EE0006BB2CC0067ABC4004E8294004E8294006B
:101EF000A7FDFC00609EB4005E9CB2005C98AD0043
:101F00005C98AD005454540054545400545454003C
:101F100054545400545454005454540054545400D1
:101F200054545400545454005454540054545400C1
:101F3000545454005C98AD005E9CB2005E9CB200AC
:101F40005E9CB200518597004E808F004E829400B7
:101F500067ABC40067ABC400497A8B00497A8B0039
:101F6000497A8B005454540054545400545454002F
:101F70005454540054545400545454005454540071
:101F80005454540054545400545454005454540061
:101F90005454540054545400545454005454540051
:101FA00054545400497A8B0067ABC400497A8B00C3
:101FB0004C7E91004E808F004E8294005E9CB20059
:101FC0005E9CB2005C98AD005C98AD005454540027
:101FD0005454540054545400545454005454540011
:101FE0005454540054545400545454005454540001
:101FF0005454540054545400558DA2005C98AD00C4
:102000005E9CB2005E9CB2009AF6FB004E82940089
:102010004E8294004E808F004C7E910086DDF10050
:1020200054545400545454005454540054545400C0
:1020300054545400545454005454540054545400B0
:1020400054545400545454005454540054545400A0
:102050005454540054545400545454005454540090
:102060005454540054545400545454005454540080
:1020700054545400545454004C7E91004C7E9100B2
:102080004E829400518597005E9CB2005C98AD0032
:102090005C98AD00558DA200545454005454540023
:1020A0005454540054545400545454005454540040
:1020B0005454540054545400545454005454540030
:1020C0005C98AD005C98AD005E9CB2005E9CB20076
:1020D0004E8294004E8294004C7E910054545400E1
:1020E0005454540054545400545454005454540000
:1020F00054545400545454005454540054545400F0
:1021000054545400545454005454540054545400DF
:1021100054545400545454005454540054545400CF
:1021200054545400545454005454540054545400BF
:1021300054545400545454005454540054545400AF
:102140005454540054545400545454004E82940037
:102150007ED1E8005C98AD005C98AD00687A8100A3
:10216000545454005454540054545400545454007F
:10217000545454005454540054545400545454006F
:10218000545454005454540054545400545454005F
:102190005454540076C3DC00545454005454540036
:1021A000545454005454540054545400545454003F
:1021B000545454005454540054545400545454002F
:1021C000545454005454540054545400545454001F
:1021D000545454005454540054545400545454000F
:1021E00054545400545454005454540054545400FF
:1021F00054545400545454005454540054545400EF
:102200007CCDEA0082D5ED007ED3F10089E3FB00AE
:1022100089E3FB0054545400545454005454540063
:1022200054545400545454005454540054545400BE
:1022300054545400545454005454540054545400AE
:10224000545454005454540054545400545454009E
:10225000545454005454540054545400545454008E
:1022600054545400B0FFFB0082D8F7007DD1EE003B
:102270007ED3F1007CCDEA005454540054545400F1
:10228000545454005454540054545400545454005E
:10229000545454005454540054545400545454004E
:1022A000545454005454540054545400545454003E
:1022B000545454005454540054545400545454002E
:1022C00054545400545454007ED3F1007ED3F10092
:1022D00082D8F7007ED3F10067ACC4005454540098
:1022E00054545400545454005454540054545400FE
:1022F00054545400545454005454540054545400EE
:1023000054545400545454005454540054545400DD
:1023100054545400545454005454540054545400CD
:102320005454540054545400626464003E6877006E
:1023300082D8F70082D8F7007ED3F1007DD1EE007D
:102340004D7989005454540054545400545454004A
:10235000545454005454540054545400545454008D
:10236000545454005454540054545400545454007D
:10237000545454005454540054545400545454006D
:102380005454540054545400545454007ED3F10017
:102390007CCDEA0082D8F70082D8F70089E3FB0001
:1023A0003E6877003E6877005454540054545400FB
:1023B000545454005454540054545400545454002D
:1023C000545454005454540054545400545454001D
:1023D000545454005454540054545400545454000D
:1023E00054545400545454005454540054545400FD
:1023F0003E6877003E68770082D8F70082D8F70001
:1024000082D8F7007ED3F1007CCDEA00545454000A
:1024100054545400545454005454540054545400CC
:1024200054545400545454005454540054545400BC
:1024300054545400545454005454540054545400AC
:10244000545454005454540054545400545454009C
:10245000545454007DD1EE007ED3F1007ED3F100C0
:1024600089E3FB0089E3FB003E6877003E68770064
:10247000545454005454540054545400545454006C
:10248000545454005454540054545400545454005C
:10249000545454005454540054545400545454004C
:1024A000545454005454540054545400545454003C
:1024B00054545400545454003E6877003E687700EA
:1024C000A9FDFC0082D8F70082D8F70082D8F70077
:1024D00082D8F700545454005454540054545400B7
:1024E00054545400545454005454540054545400FC
:1024F00054545400545454005454540054545400EC
:1025000054545400545454005454540054545400DB
:10251000545454005454540055747F007ED3F10039
:1025200082D8F70082D8F70082D8F7005D9CB3000C
:102530003E68770092EDFA0054545400545454000D
:10254000545454005454540054545400545454009B
:10255000545454005454540054545400545454008B
:10256000545454005454540054545400545454007B
:10257000545454005454540054545400545454006B
:1025800092EDFA0092EDFA003E68770082D8F700EB
:1025900089E3FB0082D8F7007ED3F10082D5ED00FD
:1025A000545454005454540054545400545454003B
:1025B000545454005454540054545400545454002B
:1025C000545454005454540054545400545454001B
:1025D000545454005454540054545400545454000B
:1025E0007CCDEA007ED3F1007ED3F10082D8F700E3
:1025F00082D8F70089E3FB0089E3FB0092EDFA0043
:10260000406A7900545454005454540054545400B3
:1026100054545400545454005454540054545400CA
:1026200054545400545454005454540054545400BA
:1026300054545400545454005454540054545400AA
:10264000545454003E687700A9FDFC0092EDFA0056
:1026500076C3DC0089E3FB0082D8F70082D8F7005C
:102660007DD1EE007DD1EE005454540054545400FA
:10267000545454005454540054545400545454006A
:10268000545454005454540054545400545454005A
:10269000545454005454540054545400545454004A
:1026A00054545400545454007CCDEA007ED3F100BD
:1026B00082D8F70089E3FB009AF5FC003E687700BA
:1026C00092EDFA0062838F003E6877005454540004
:1026D000545454005454540054545400545454000A
:1026E00054545400545454005454540054545400FA
:1026F00054545400545454005454540054545400EA
:102700005454540054545400545454003E687700B8
:102710003E68770089E3FB003E687700A9FDFC0076
:1027200082D8F70082D8F70082D8F7007CCDEA0083
:10273000497788005454540054545400545454005D
:102740005454540054545400545454005454540099
:102750005454540054545400545454005454540089
:102760005454540054545400545454007CCDEA0042
:102770007ED3F10082D8F70082D8F70089E3FB000E
:102780004E8395003E68770089E3FB003E68770042
:102790005454540054545400545454005454540049
:1027A0005454540054545400545454005454540039
:1027B0005454540054545400545454005454540029
:1027C0005454540054545400545454005454540019
:1027D00054545400545454006E7376008AE0EE0052
:1027E0003E6877003E6877007ED3F10082D8F7001C
:1027F0007ED3F1007ED3F1007CCDEA005454540026
:1028000054545400545454005454540054545400D8
:1028100054545400545454005454540054545400C8
:1028200054545400545454005454540054545400B8
:10283000545454007CCDEA007ED3F10082D8F700D6
:1028400082D8F70082D8F7003E6877003E687700AC
:102850003E68770054545400545454005454540067
:102860005454540054545400545454005454540078
:102870005454540054545400545454005454540068
:102880005454540054545400545454005454540058
:102890005454540054545400545454005454540048
:1028A00054545400545454003E687700406A7900F0
:1028B0007ED3F10082D8F70082D8F70082D8F700E3
:1028C0007CCDEA00545454005454540054545400E1
:1028D0005454540054545400545454005454540008
:1028E00054545400545454005454540054545400F8
:1028F00054545400545454004A7382007CCDEA006E
:102900007CCDEA007ED3F10082D8F700A9FDFC005F
:10291000406A7900545454005454540054545400A0
:1029200054545400545454005454540054545400B7
:1029300054545400545454005454540054545400A7
:102940005454540054545400545454005454540097
:102950005454540054545400545454005454540087
:102960005454540054545400545454005454540077
:1029700054545400565656009AF5FC007ED3F1008C
:102980007ED3F1007CCDEA007CCDEA007CCDEA006C
:102990005454540054545400545454005454540047
:1029A0005454540054545400545454005454540037
:1029B0005454540054545400545454005454540027
:1029C0005454540054545400426F800076C3DC00C9
:1029D0007ED3F10049778800545454005454540075
:1029E00054545400545454005454540054545400F7
:1029F00054545400545454005454540054545400E7
:102A000054545400545454005454540054545400D6
:102A100054545400545454005454540054545400C6
:102A200054545400545454005454540054545400B6
:102A3000545454009DFCFB009DFCFB009DFCFB00DE
:102A40009DFCFB00A3FDFC0054545400545454005E
:102A50005454540054545400545454005454540086
:102A60005454540054545400545454005454540076
:102A70005454540054545400545454005454540066
:102A80005454540054545400545454005454540056
:102A90005454540054545400A3FDFC009DFCFB000E
:102AA0009DFCFB009DFCFB009DFCFB00545454006E
:102AB0005454540054545400545454005454540026
:102AC0005454540054545400545454005454540016
:102AD0005454540054545400545454005454540006
:102AE00054545400545454005454540054545400F6
:102AF0005454540054545400545454009DFCFB004E
:102B00009DFCFB009DFCFB00A3FDFC00A3FDFC0065
:102B100054545400545454005454540054545400C5
:102B200054545400545454005454540054545400B5
:102B300054545400545454005454540054545400A5
:102B40005454540054545400545454005454540095
:102B50005454540054545400545454005454540085
:102B6000A3FDFC00A3FDFC00A3FDFC009DFCFB00FD
:102B70009DFCFB00545454005454540054545400CD
:102B80005454540054545400545454005454540055
:102B90005454540054545400545454005454540045
:102BA0005454540054545400545454005454540035
:102BB0005454540054545400545454005454540025
:102BC000545454009DFCFB00A3FDFC00A3FDFC003D
:102BD000A3FDFC009DFCFB005454540054545400CD
:102BE00054545400545454005454540054545400F5
:102BF00054545400545454005454540054545400E5
:102C000054545400545454005454540054545400D4
:102C100054545400545454005454540054545400C4
:102C20005454540054545400A3FDFC00A3FDFC0074
:102C3000A3FDFC009DFCFB00A3FDFC0054545400CC
:102C40005454540054545400545454005454540094
:102C50005454540054545400545454005454540084
:102C60005454540054545400545454005454540074
:102C70005454540054545400545454005454540064
:102C80005454540054545400697C83009DFCFB0050
:102C90009DFCFB00A3FDFC00A3FDFC00B0FEFB00BF
:102CA0005454540054545400545454005454540034
:102CB0005454540054545400545454005454540024
:102CC0005454540054545400545454005454540014
:102CD0005454540054545400545454005454540004
:102CE00054545400545454005454540054545400F4
:102CF000B0FEFB00A3FDFC009DFCFB009DFCFB0067
:102D00009DFCFB00497787005454540054545400F0
:102D100054545400545454005454540054545400C3
:102D200054545400545454005454540054545400B3
:102D300054545400545454005454540054545400A3
:102D40005454540054545400545454005454540093
:102D50006EB9D2009DFCFB009DFCFB00A3FDFC00B6
:102D6000A3FDFC00B0FEFB00545454005454540026
:102D70005454540054545400545454005454540063
:102D80005454540054545400545454005454540053
:102D90005454540054545400545454005454540043
:102DA0005454540054545400545454005454540033
:102DB0005454540054545400A3FDFC00A3FDFC00E3
:102DC000A3FDFC00A3FDFC009DFCFB0093ECF700C1
:102DD0005454540054545400545454005454540003
:102DE00054545400545454005454540054545400F3
:102DF00054545400545454005454540054545400E3
:102E000054545400545454005454540054545400D2
:102E100054545400545454009DFCFB00A3FDFC008A
:102E2000A3FDFC009DFCFB00A3FDFC00A3FDFC003A
:102E300067696A0054545400545454005454540064
:102E40005454540054545400545454005454540092
:102E50005454540054545400545454005454540082
:102E60005454540054545400545454005454540072
:102E70005454540054545400545454007076780000
:102E80008CE6F500A3FDFC00A3FDFC00A3FDFC0007
:102E9000A3FDFC009DFCFB0054545400545454000A
:102EA0005454540054545400545454005454540032
:102EB0005454540054545400545454005454540022
:102EC0005454540054545400545454005454540012
:102ED0005454540054545400545454005454540002
:102EE0009DFCFB00A3FDFC009DFCFB00B0FEFB0075
:102EF000B0FEFB0083D8EB006E7C8200545454007B
:102F000054545400545454005454540054545400D1
:102F100054545400545454005454540054545400C1
:102F200054545400545454005454540054545400B1
:102F300054545400545454005454540054545400A1
:102F4000545454005454540067ACC400A3FDFC0016
:102F5000B0FEFB00A3FDFC009DFCFB009DFCFB0004
:102F60005454540054545400545454005454540071
:102F70005454540054545400545454005454540061
:102F80005454540054545400545454005454540051
:102F90005454540054545400545454005454540041
:102FA00054545400545454009DFCFB00A3FDFC00F9
:102FB000A3FDFC00A3FDFC00A3FDFC00558DA200B9
:102FC0005454540054545400545454005454540011
:102FD0005454540054545400545454005454540001
:102FE00054545400545454005454540054545400F1
:102FF00054545400545454005454540054545400E1
:1030000054545400545454005454540054545400D0
:1030100048717E00A3FDFC00A3FDFC00A3FDFC00A5
:10302000A3FDFC009DFCFB00545454005454540078
:1030300054545400545454005454540054545400A0
:103040005454540054545400545454005454540090
:103050005454540054545400545454005454540080
:103060005454540054545400545454005454540070
:103070009DFCFB00A3FDFC00A3FDFC00A3FDFC00E8
:10308000A3FDFC003C63730054545400545454009A
:103090005454540054545400545454005454540040
:1030A0005454540054545400545454005454540030
:1030B0005454540054545400545454005454540020
:1030C0005454540054545400545454005454540010
:1030D00054545400545454003C637300A3FDFC004A
:1030E000A3FDFC00A3FDFC00A3FDFC009DFCFB0078
:1030F00054545400545454005454540054545400E0
:1031000054545400545454005454540054545400CF
:1031100054545400545454005454540054545400BF
:1031200054545400545454005454540054545400AF
:1031300054545400545454009DFCFB009DFCFB006F
:10314000A3FDFC009DFCFB00A3FDFC003C637300A1
:10315000545454005454540054545400545454007F
:10316000545454005454540054545400545454006F
:10317000545454005454540054545400545454005F
:10318000545454005454540054545400545454004F
:10319000545454005454540054545400545454003F
:1031A0005B5B5B00A3FDFC009DFCFB00A3FDFC0042
:1031B0009DFCFB009DFCFB0067696A0054545400B1
:1031C000545454005454540054545400545454000F
:1031D00054545400545454005454540054545400FF
:1031E00054545400545454005454540054545400EF
:1031F0005454540054545400545454005674800091
:103200009DFCFB009DFCFB009DFCFB009DFCFB006E
:10321000A3FDFC005454540054545400545454001E
:1032200054545400545454005454540054545400AE
:10323000545454005454540054545400545454009E
:10324000545454005454540054545400545454008E
:10325000545454005454540054545400545454007E
:103260005454540054545400ADFDFA00ADFDFA001E
:10327000ADFDFA00ADFDFA00ADFDFA005454540066
:10328000545454005454540054545400545454004E
:10329000545454005454540054545400545454003E
:1032A000545454005454540054545400545454002E
:1032B000545454005454540054545400545454001E
:1032C000545454005454540054545400ADFDFA0066
:1032D000ADFDFA00ADFDFA00ADFDFA00ADFDFA005E
:1032E00054545400545454005454540054545400EE
:1032F00054545400545454005454540054545400DE
:1033000054545400545454005454540054545400CD
:1033100054545400545454005454540054545400BD
:1033200054545400545454005454540054545400AD
:10333000ADFDFA00ADFDFA00ADFDFA00ADFDFA00FD
:10334000ADFDFA00545454005454540054545400E5
:10335000545454005454540054545400545454007D
:10336000545454005454540054545400545454006D
:10337000545454005454540054545400545454005D
:10338000545454005454540054545400545454004D
:1033900054545400B1FEFA00ADFDFA00B1FEFA003B
:1033A000ADFDFA00ADFDFA005454540054545400DD
:1033B000545454005454540054545400545454001D
:1033C000545454005454540054545400545454000D
:1033D00054545400545454005454540054545400FD
:1033E00054545400545454005454540054545400ED
:1033F00054545400545454009BF4FC00B1FEFA00A1
:10340000B1FEFA00B1FEFA00ADFDFA0054545400CA
:1034100054545400545454005454540054545400BC
:1034200054545400545454005454540054545400AC
:10343000545454005454540054545400545454009C
:10344000545454005454540054545400545454008C
:1034500054545400545454006CB3CB00ADFDFA00E6
:10346000B1FEFA00ADFDFA00ADFDFA0086DDF10017
:10347000545454005454540054545400545454005C
:10348000545454005454540054545400545454004C
:10349000545454005454540054545400545454003C
:1034A000545454005454540054545400545454002C
:1034B000545454005454540054545400545454001C
:1034C0005E9CB300ADFDFA00ADFDFA00B1FEFA005E
:1034D000B1FEFA00ADFDFA005454540054545400A7
:1034E00054545400545454005454540054545400EC
:1034F00054545400545454005454540054545400DC
:1035000054545400545454005454540054545400CB
:1035100054545400545454005454540054545400BB
:10352000ADFDFA00B1FEFA00B1FEFA00ADFDFA0001
:10353000B1FEFA00487787005454540054545400A4
:10354000545454005454540054545400545454008B
:10355000545454005454540054545400545454007B
:10356000545454005454540054545400545454006B
:10357000545454005454540054545400545454005B
:1035800054545400545454003C637300B1FEFA0088
:10359000B1FEFA00B1FEFA00B1FEFA00B1FEFA0087
:1035A000545454005454540054545400545454002B
:1035B000545454005454540054545400545454001B
:1035C000545454005454540054545400545454000B
:1035D00054545400545454005454540054545400FB
:1035E0005454540054545400ADFDFA00B1FEFA0096
:1035F000B1FEFA00ADFDFA00B1FEFA0086C6CA00BF
:1036000054545400545454005454540054545400CA
:1036100054545400545454005454540054545400BA
:1036200054545400545454005454540054545400AA
:10363000545454005454540054545400545454009A
:103640005454540054545400545454005E5F5F006A
:10365000B1FEFA00B1FEFA00B1FEFA00B1FEFA00C6
:10366000ADFDFA00B1FEFA00545454005454540015
:10367000545454005454540054545400545454005A
:10368000545454005454540054545400545454004A
:10369000545454005454540054545400545454003A
:1036A000545454005454540054545400545454002A
:1036B000B1FEFA00B1FEFA00B1FEFA00B1FEFA0066
:1036C000ADFDFA00B1FEFA00747D8100545454003F
:1036D00054545400545454005454540054545400FA
:1036E00054545400545454005454540054545400EA
:1036F00054545400545454005454540054545400DA
:1037000054545400545454005454540054545400C9
:10371000545454005E7983008DD1D400ADFDFA007D
:10372000B1FEFA00B1FEFA00B1FEFA00ADFDFA00FA
:103730005454540054545400545454005454540099
:103740005454540054545400545454005454540089
:103750005454540054545400545454005454540079
:103760005454540054545400545454005454540069
:103770005454540054545400B1FEFA00B1FEFA00FF
:10378000B1FEFA00B1FEFA00B1FEFA0048778700F8
:103790005454540054545400545454005454540039
:1037A0005454540054545400545454005454540029
:1037B0005454540054545400545454005454540019
:1037C0005454540054545400545454005454540009
:1037D00054545400545454005454540054545400F9
:1037E00039606F00B1FEFA00B1FEFA00B1FEFA00D6
:1037F000B1FEFA00A5F0EF0072797C005454540039
:1038000054545400545454005454540054545400C8
:1038100054545400545454005454540054545400B8
:1038200054545400545454005454540054545400A8
:103830005454540054545400545454007BCBE3006B
:10384000B1FEFA00B1FEFA00B1FEFA00B1FEFA00D4
:10385000B1FEFA003C6373005454540054545400B5
:103860005454540054545400545454005454540068
:103870005454540054545400545454005454540058
:103880005454540054545400545454005454540048
:103890005454540054545400545454005454540038
:1038A00054545400545454003C637300ADFDFA006A
:1038B000ADFDFA00B1FEFA00B1FEFA00B1FEFA0069
:1038C000ADFDFA0054545400545454005454540060
:1038D00054545400545454005454540054545400F8
:1038E00054545400545454005454540054545400E8
:1038F00054545400545454005454540054545400D8
:1039000054545400B1FEFA00ADFDFA00B1FEFA00C5
:10391000B1FEFA00B1FEFA00B1FEFA0054545400B0
:1039200054545400545454005454540054545400A7
:103930005454540054545400545454005454540097
:103940005454540054545400545454005454540087
:103950005454540054545400545454005454540077
:103960005454540054545400545454005454540067
:10397000545454009BF4FC00B1FEFA00ADFDFA0073
:10398000B1FEFA00ADFDFA00B1FEFA005454540045
:103990005454540054545400545454005454540037
:1039A0005454540054545400545454005454540027
:1039B0005454540054545400545454005454540017
:1039C000545454005454540054545400B1FEFA005A
:1039D000ADFDFA00ADFDFA00B1FEFA00ADFDFA0052
:1039E0007ED2E700545454005454540054545400AC
:1039F00054545400545454005454540054545400D7
:103A000054545400545454005454540054545400C6
:103A100054545400545454005454540054545400B6
:103A200054545400545454005454540054545400A6
:103A30005454540054545400545454005FA1B900D9
:103A4000ADFDFA00ADFDFA00ADFDFA009BF4FC00FF
:103A50006EB9D20054545400545454005454540079
:103A60005454540054545400545454005454540066
:103A70005454540054545400545454005454540056
:103A80005454540054545400545454005454540046
:103A9000545454005454540054545400A5FDFC0094
:103AA0009CF9FB009CF9FB00A5FDFC009CF9FB00C8
:103AB0005454540054545400545454005454540016
:103AC0005454540054545400545454005454540006
:103AD00054545400545454005454540054545400F6
:103AE00054545400545454005454540054545400E6
:103AF00054545400545454005454540054545400D6
:103B00009CF9FB009CF9FB00A5FDFC00A5FDFC0059
:103B10008CE6F4005454540054545400545454004B
:103B200054545400545454005454540054545400A5
:103B30005454540054545400545454005454540095
:103B40005454540054545400545454005454540085
:103B50005454540054545400545454005454540075
:103B6000545454003C637300A5FDFC00A5FDFC000B
:103B70009CF9FB00A5FDFC0054545400545454001F
:103B80005454540054545400545454005454540045
:103B90005454540054545400545454005454540035
:103BA0005454540054545400545454005454540025
:103BB0005454540054545400545454005454540015
:103BC000545454006EB9D200A5FDFC00A5FDFC00C4
:103BD000A5FDFC00A5FDFC003C63730056737E0050
:103BE00054545400545454005454540054545400E5
:103BF00054545400545454005454540054545400D5
:103C000054545400545454005454540054545400C4
:103C100054545400545454005454540054545400B4
:103C200054545400545454003C6373003C63730078
:103C3000A5FDFC00A5FDFC00A5FDFC009CF9FB001A
:103C40009CF9FB00545454005454540054545400F0
:103C50005454540054545400545454005454540074
:103C60005454540054545400545454005454540064
:103C70005454540054545400545454005454540054
:103C8000545454005454540054545400A5FDFC00A2
:103C9000A5FDFC00A5FDFC00A5FDFC00B0FFFB00A0
:103CA0003C6373003C6373005454540054545400F8
:103CB0005454540054545400545454005454540014
:103CC0005454540054545400545454005454540004
:103CD00054545400545454005454540054545400F4
:103CE00054545400545454005454540054545400E4
:103CF0003C6373003A616F0076C5DB00A5FDFC00F4
:103D0000A5FDFC00A5FDFC00A5FDFC0054545400DD
:103D100054545400545454005454540054545400B3
:103D200054545400545454005454540054545400A3
:103D30005454540054545400545454005454540093
:103D40005454540054545400545454005454540083
:103D500070787B009CF9FB00A5FDFC00A5FDFC0034
:103D6000A5FDFC003C6373003C6373003C6373007F
:103D70005454540054545400545454005454540053
:103D80005454540054545400545454005454540043
:103D90005454540054545400545454005454540033
:103DA0005454540054545400545454005454540023
:103DB0005454540054545400B0FFFB003C6373004F
:103DC000375F6F00A5FDFC00A5FDFC00A5FDFC0014
:103DD0009CF9FB00A5FDFC005454540054545400BD
:103DE00054545400545454005454540054545400E3
:103DF00054545400545454005454540054545400D3
:103E000054545400545454005454540054545400C2
:103E10005454540054545400A5FDFC00A5FDFC006E
:103E2000A5FDFC00A5FDFC00A5FDFC004D808F005C
:103E3000A5FDFC00A5FDFC00395F70005454540042
:103E40005454540054545400545454005454540082
:103E50005454540054545400545454005454540072
:103E60005454540054545400545454005454540062
:103E70005454540054545400545454003C6373003C
:103E8000B0FFFB00B0FFFB00A5FDFC00B0FFFB0096
:103E9000A5FDFC00B0FFFB00A5FDFC00A5FDFC009E
:103EA0005454540054545400545454005454540022
:103EB0005454540054545400545454005454540012
:103EC0005454540054545400545454005454540002
:103ED00054545400545454005454540054545400F2
:103EE000A5FDFC00A5FDFC00A5FDFC00A5FDFC005A
:103EF00067A5BA00B0FFFB00B0FFFB009CF9FB0018
:103F00003A616F00545454005454540054545400B3
:103F100054545400545454005454540054545400B1
:103F200054545400545454005454540054545400A1
:103F30005454540054545400545454005454540091
:103F4000545454003C63730046717E00B0FFFB0084
:103F5000B0FFFB003C637300A5FDFC00A5FDFC0069
:103F6000A5FDFC00A5FDFC009CF9FB005454540089
:103F70005454540054545400545454005454540051
:103F80005454540054545400545454005454540041
:103F90005454540054545400545454005454540031
:103FA000545454009CF9FB00A5FDFC00A5FDFC0049
:103FB000A5FDFC00A5FDFC00395F70003C637300AB
:103FC000A5FDFC00395F70003C637300545454003D
:103FD00054545400545454005454540054545400F1
:103FE00054545400545454005454540054545400E1
:103FF00054545400545454005454540054545400D1
:104000005454540054545400545454006B6F700072
:104010003C637300A5FDFC003C6373003C637300CC
:10402000A5FDFC00A5FDFC00A5FDFC00A5FDFC0018
:10403000A5FDFC00545454005454540054545400EE
:104040005454540054545400545454005454540080
:104050005454540054545400545454005454540070
:10406000545454005454540054545400A5FDFC00BE
:104070009CF9FB00A5FDFC00A5FDFC00A5FDFC00D6
:104080003C6373003C637300B0FFFB0056737E001B
:104090005454540054545400545454005454540030
:1040A0005454540054545400545454005454540020
:1040B0005454540054545400545454005454540010
:1040C0005454540054545400545454005454540000
:1040D0005454540054545400545454003C637300DA
:1040E0003C6373003C6373005994A800B0FFFB006D
:1040F000A5FDFC00A5FDFC009CF9FB007ACCE200CC
:1041000054545400545454005454540054545400BF
:1041100054545400545454005454540054545400AF
:10412000545454005454540054545400545454009F
:10413000A5FDFC00A5FDFC009CF9FB00A5FDFC0015
:10414000A5FDFC003C637300436B79003C63730086
:10415000545454005454540054545400545454006F
:10416000545454005454540054545400545454005F
:10417000545454005454540054545400545454004F
:10418000545454005454540054545400545454003F
:10419000545454005454540054545400545454002F
:1041A0005454540054545400545454003C63730009
:1041B0003C637300A5FDFC009CF9FB009CF9FB002F
:1041C000A5FDFC00A5FDFC005454540054545400BB
:1041D00054545400545454005454540054545400EF
:1041E00054545400545454005454540054545400DF
:1041F000545454006A8A9400A5FDFC00A5FDFC00FF
:104200009CF9FB00A5FDFC00A5FDFC003C637300D0
:1042100054545400545454005454540054545400AE
:10422000545454005454540054545400545454009E
:10423000545454005454540054545400545454008E
:10424000545454005454540054545400545454007E
:10425000545454005454540054545400545454006E
:10426000545454005454540054545400545454005E
:10427000545454005454540054545400A5FDFC00AC
:104280009CF9FB004C7A8B00545454005454540055
:10429000545454005454540054545400545454002E
:1042A000545454005454540054545400545454001E
:1042B000545454005454540054545400545454000E
:1042C00054545400545454005454540054545400FE
:1042D0005E9CB2008BE7FB0084DBFA0084DBFA0013
:1042E0007080860054545400545454005454540064
:1042F00054545400545454005454540054545400CE
:1043000054545400545454005454540054545400BD
:1043100054545400545454005454540054545400AD
:10432000545454005454540054545400545454009D
:104330005454540084DBFA0084DBFA008BE7FB0062
:1043400084DBFA003E677600545454005454540001
:10435000545454005454540054545400545454006D
:10436000545454005454540054545400545454005D
:10437000545454005454540054545400545454004D
:10438000545454005454540054545400545454003D
:1043900054545400545454003E67760091EEFB0090
:1043A00084DBFA0084DBFA0084DBFA005454540006
:1043B000545454005454540054545400545454000D
:1043C00054545400545454005454540054545400FD
:1043D00054545400545454005454540054545400ED
:1043E00054545400545454005454540054545400DD
:1043F000545454005454540079CAE60084DBFA0043
:1044000084DBFA0084DBFA006EB8D3003E677600E6
:104410003E6776005454540054545400545454008D
:10442000545454005454540054545400545454009C
:10443000545454005454540054545400545454008C
:10444000545454005454540054545400545454007C
:104450005454540054545400545454003E6776004D
:104460003E6776003E67760084DBFA0084DBFA0064
:1044700084DBFA0084DBFA00545454005454540092
:10448000545454005454540054545400545454003C
:10449000545454005454540054545400545454002C
:1044A000545454005454540054545400545454001C
:1044B000545454005454540054545400545454000C
:1044C00084DBFA0084DBFA008BE7FB008FF0FC0052
:1044D0003E6776003E6776003E677600545454008F
:1044E00054545400545454005454540054545400DC
:1044F00054545400545454005454540054545400CC
:1045000054545400545454005454540054545400BB
:1045100054545400545454005454540054545400AB
:104520003E6776003E6776003E6776003E6776001F
:104530006EB8D30084DBFA0084DBFA0084DBFA0077
:1045400084DBFA005454540054545400545454001E
:10455000545454005454540054545400545454006B
:10456000545454005454540054545400545454005B
:10457000545454005454540054545400545454004B
:104580005454540084DBFA0084DBFA0084DBFA0024
:104590008BE7FB003E6776003E6776004069780057
:1045A0003E6776003E6776005454540054545400DD
:1045B000545454005454540054545400545454000B
:1045C00054545400545454005454540054545400FB
:1045D00054545400545454005454540054545400EB
:1045E000545454005454540091EEFB004D808F00FD
:1045F000406978003E6776003E67760095F3FC00E0
:1046000084DBFA0084DBFA0084DBFA0054545400A3
:1046100054545400545454005454540054545400AA
:10462000545454005454540054545400545454009A
:10463000545454005454540054545400545454008A
:1046400054545400545454007FD4F30084DBFA00D3
:1046500084DBFA008BE7FB0075C4DC003B626F0073
:104660008BE7FB0091EEFB0091EEFB00A8FDFC0048
:10467000707B7E00545454005454540054545400DD
:10468000545454005454540054545400545454003A
:10469000545454005454540054545400545454002A
:1046A0005454540054545400545454003B626F000A
:1046B000406978008FF0FC0091EEFB008FF0FC0069
:1046C00062777E00545454008BE7FB0084DBFA00D1
:1046D00084DBFA0084DBFA00545454005454540030
:1046E00054545400545454005454540054545400DA
:1046F00054545400545454005454540054545400CA
:1047000054545400545454005454540054545400B9
:1047100082D7EC0084DBFA008BE7FB0095F3FC000A
:104720003E6776008FF0FC0091EEFB0091EEFB00FF
:104730008FF0FC00436F80004069780054545400AF
:104740005454540054545400545454005454540079
:104750005454540054545400545454005454540069
:104760005454540054545400545454005454540059
:1047700054545400406978004069780095F3FC0077
:104780008BE7FB008FF0FC0091EEFB003E677600AC
:1047900075C4DC0084DBFA008BE7FB0084DBFA00E5
:1047A00084DBFA00545454005454540054545400BC
:1047B0005454540054545400545454005454540009
:1047C00054545400545454005454540054545400F9
:1047D000545454007FD4F30084DBFA0084DBFA00E5
:1047E0008BE7FB00406978003E6776003E67760005
:1047F0008BE7FB008BE7FB004C7E91003B626F0078
:104800003B626F003B626F00545454005454540098
:1048100054545400545454005454540054545400A8
:104820005454540054545400545454005454540098
:104830005454540054545400545454004069780063
:10484000406978003B626F008FF0FC008BE7FB0053
:104850003E6776003E6776003E677600A8FDFC0066
:1048600084DBFA0084DBFA0084DBFA005454540041
:104870005454540054545400545454005454540048
:104880005454540054545400545454005454540038
:10489000545454005454540079CAE60084DBFA009E
:1048A00084DBFA0084DBFA004E8295003E677600D6
:1048B0003E677600406978003E677600A8FDFC0000
:1048C0003B626F006A7B820054545400545454007D
:1048D00054545400545454005454540054545400E8
:1048E00054545400545454005454540054545400D8
:1048F00054545400545454005454540054545400C8
:1049000054545400545454005454540054545400B7
:10491000487687003E6776003E6776003E67760001
:104920003E67760049707E008BE7FB0084DBFA006F
:1049300084DBFA0084DBFA005454540054545400CD
:104940005454540054545400545454005454540077
:104950005454540054545400545454006596A600C2
:104960007FD4F30084DBFA0084DBFA0095F3FC00CB
:104970003E6776003E6776004069780040697800BF
:104980005454540054545400545454005454540037
:104990005454540054545400545454005454540027
:1049A0005454540054545400545454005454540017
:1049B0005454540054545400545454005454540007
:1049C00054545400545454005454540054545400F7
:1049D00054545400545454005454540054545400E7
:1049E00054545400545454003E677600436F800082
:1049F000558DA20084DBFA0082D7EC0079CAE6006C
:104A00007FD4F3005454540054545400545454006C
:104A100054545400545454005454540054545400A6
:104A200054545400545454005454540084DBFA0039
:104A300084DBFA003E677600707B8000545454009B
:104A40005454540054545400545454005454540076
:104A50005454540054545400545454005454540066
:104A60005454540054545400545454005454540056
:104A70005454540054545400545454005454540046
:104A80005454540054545400545454005454540036
:104A90005454540054545400545454005454540026
:104AA0005454540054545400545454005454540016
:104AB0005454540054545400545454005454540006
:104AC00054545400545454005454540054545400F6
:104AD00054545400545454005454540054545400E6
:104AE00054545400545454005454540054545400D6
:104AF00054545400545454005454540054545400C6
:104B0000545454005454540065A9C20065A9C2000D
:104B100062A3BA00545454005454540054545400E2
:104B20005454540054545400545454005454540095
:104B30005454540054545400545454005454540085
:104B40005454540054545400545454005454540075
:104B50005454540054545400545454005454540065
:104B600054545400545454006085920062A3BA0017
:104B700062A3BA00A8FDFC00426F800054545400A8
:104B80005454540054545400545454005454540035
:104B90005454540054545400545454005454540025
:104BA0005454540054545400545454005454540015
:104BB0005454540054545400545454005454540005
:104BC0005454540054545400545454004D81930090
:104BD0004D81930065A9C20062A3BA0062A3BA0026
:104BE00054545400545454005454540054545400D5
:104BF00054545400545454005454540054545400C5
:104C000054545400545454005454540054545400B4
:104C100054545400545454005454540054545400A4
:104C20005454540054545400545454006E74760038
:104C300062A3BA0065A9C200A8FDFC004D819300E3
:104C40004C7E9100627D87005454540054545400AB
:104C50005454540054545400545454005454540064
:104C60005454540054545400545454005454540054
:104C70005454540054545400545454005454540044
:104C80005454540054545400545454005454540034
:104C90004C7E91004C7E91004C7E91005286980093
:104CA00062A3BA005E9DB400609FB50054545400E6
:104CB0005454540054545400545454005454540004
:104CC00054545400545454005454540054545400F4
:104CD00054545400545454005454540054545400E4
:104CE00054545400545454005454540054545400D4
:104CF0005454540065A9C20065A9C2006CB4CD002B
:104D0000528698004C7E91004C7E91004C7E910022
:104D100054545400545454005454540054545400A3
:104D20005454540054545400545454005454540093
:104D30005454540054545400545454005454540083
:104D40005454540054545400545454005454540073
:104D5000545454004C7E9100487889004C7E910058
:104D6000487889004C7E91005A95AB0065A9C20035
:104D700062A3BA0062A3BA005454540054545400BD
:104D80005454540054545400545454005454540033
:104D90005454540054545400545454005454540023
:104DA0005454540054545400545454005454540013
:104DB0005454540054545400609FB50062A3BA0088
:104DC0005FA0B7004D8193004C7E91004C7E910016
:104DD000487889004C7E91004C7E910054545400D8
:104DE00054545400545454005454540054545400D3
:104DF00054545400545454005454540054545400C3
:104E000054545400545454005454540054545400B2
:104E100054545400545454005A95AB0048788900B7
:104E2000487889004C7E91004C7E91004C7E910028
:104E30004C7E91009AF5FB0065A9C2005E9DB4000E
:104E40005E9DB400545454005454540054545400BF
:104E50005454540054545400545454005454540062
:104E60005454540054545400545454005454540052
:104E70005454540054545400545454005FA0B70088
:104E800065A9C20062A3BA004C7E910066788000DA
:104E900054545400545454006CB4CD006EB7D20036
:104EA0006EB7D200487889005454540054545400CA
:104EB0005454540054545400545454005454540002
:104EC00054545400545454005454540054545400F2
:104ED0005454540054545400545454006F75770083
:104EE000426F800082D7EC0071BAD4006EB7D20056
:104EF0006CB4CD00545454005454540054545400D1
:104F0000A8FDFC0062A3BA0062A3BA005E9DB400D3
:104F100054545400545454005454540054545400A1
:104F20005454540054545400545454005454540091
:104F30005454540054545400545454005454540081
:104F4000609FB500609FB50065A9C2004D819300C8
:104F50004E808F0054545400545454006CB4CD000F
:104F60006CB4CD006EB7D2004878890048788900CB
:104F7000426F80005454540054545400545454000C
:104F80005454540054545400545454005454540031
:104F90005454540054545400545454005454540021
:104FA00054545400487889003E6877004878890056
:104FB0006EB7D2006EB7D2006CB4CD006F7C8000AB
:104FC000545454004C7E91004D8193009AF5FB009F
:104FD00062A3BA0062A3BA00565656005454540055
:104FE00054545400545454005454540054545400D1
:104FF00054545400545454005454540054545400C1
:10500000545454005FA0B700609FB50062A3BA007B
:105010004C7E91004C7E91004E808F004C7E910022
:1050200065A9C2006CB4CD0070B7CF0082D7EC0088
:105030004878890048788900426F8000426F80007C
:105040005454540054545400545454005454540070
:105050005454540054545400545454005454540060
:105060005454540054545400426F800047717F00E0
:10507000426F800048788900487889006EB7D20076
:105080006EB7D2006CB4CD004C7E91004C7E910086
:105090004C7E91004D8193006CB4CD0062A3BA00A8
:1050A000609FB50054545400545454005454540058
:1050B0005454540054545400545454005454540000
:1050C00054545400545454005E9DB400609FB50085
:1050D00062A3BA005A95AB004C7E91004C7E9100C1
:1050E0004C7E910048788900487889006EB7D200DC
:1050F0009AF5FB00426F8000487889004878890063
:1051000054545400545454005454540054545400AF
:10511000545454005454540054545400545454009F
:10512000545454005454540054545400545454008F
:10513000545454005454540054545400545454007F
:105140006F75770048788900426F80004878890041
:10515000487889004C7E91004C7E91004C7E9100F5
:105160004D81930062A3BA00609FB5005FA0B700B5
:10517000545454005454540054545400545454003F
:105180005454540054545400545454005E9DB4007C
:105190005E9DB40062A3BA007ED2E8004C7E91000E
:1051A0004C7E91004E808F004878890048788900B5
:1051B00054545400545454005454540054545400FF
:1051C00054545400545454005454540054545400EF
:1051D00054545400545454005454540054545400DF
:1051E00054545400545454005454540054545400CF
:1051F00054545400545454005454540054545400BF
:1052000054545400545454005454540054545400AE
:10521000545454005454540054545400545454009E
:10522000545454004C7E91004E808F004C7E91006F
:1052300062A3BA0062A3BA005454540054545400F8
:10524000545454005454540054545400545454006E
:105250005454540054545400545454005A95AB00C0
:10526000545454005454540054545400545454004E
:10527000545454005454540054545400545454003E
:10528000545454005454540054545400545454002E
:10529000545454005454540054545400545454001E
:1052A000545454005454540054545400545454000E
:1052B00054545400545454005454540054545400FE
:1052C00054545400545454005454540054545400EE
:1052D00054545400545454005454540054545400DE
:1052E00054545400545454005454540054545400CE
:1052F00054545400545454005454540054545400BE
:1053000054545400545454005454540054545400AD
:10531000545454005454540054545400545454009D
:10532000545454005454540054545400545454008D
:105330005454540054545400545454006BB3CC008F
:105340004C7E910049798B005454540054545400BD
:10535000545454005454540054545400545454005D
:10536000545454005454540054545400545454004D
:10537000545454005454540054545400545454003D
:10538000545454005454540054545400545454002D
:10539000545454005454540054545400545454001D
:1053A00049798B004C7E91006BB3CC00545454006F
:1053B00054545400545454005454540054545400FD
:1053C00054545400545454005454540054545400ED
:1053D00054545400545454005454540054545400DD
:1053E00054545400545454005454540054545400CD
:1053F00054545400545454005454540054545400BD
:1054000052889B0066AAC30083D8EC0049798B00C0
:1054100049798B005454540054545400545454004B
:10542000545454005454540054545400545454008C
:10543000545454005454540054545400545454007C
:10544000545454005454540054545400545454006C
:10545000545454005454540054545400545454005C
:105460005454540049798B00517E900066AAC300C1
:1054700066AAC30062A3BA005454540054545400A2
:10548000545454005454540054545400545454002C
:10549000545454005454540054545400545454001C
:1054A000545454005454540054545400545454000C
:1054B00054545400545454005454540054545400FC
:1054C000545454005E9DB3005FA0B70066AAC300A9
:1054D00066AAC30071BCD60049798B0049798B005C
:1054E00054545400545454005454540054545400CC
:1054F00054545400545454005454540054545400BC
:1055000054545400545454005454540054545400AB
:10551000545454005454540054545400545454009B
:10552000545454005454540049798B004C7E9100DB
:1055300066AAC30066AAC30066AAC30062A3BA0033
:1055400062A3BA00545454005454540054545400A8
:10555000545454005454540054545400545454005B
:10556000545454005454540054545400545454004B
:10557000545454005454540054545400545454003B
:105580005454540054545400609EB500609EB500BD
:1055900062A3BA005FA0B7005FA0B70066AAC3000D
:1055A0006EB8D20049798B0049798B00545454006D
:1055B00054545400545454005454540054545400FB
:1055C00054545400545454005454540054545400EB
:1055D00054545400545454005454540054545400DB
:1055E00054545400545454005454540049798B007A
:1055F000558EA30066AAC30066AAC3005FA0B700C9
:105600005FA0B7005E9DB300609EB5005E9DB300D5
:10561000545454005454540054545400545454009A
:10562000545454005454540054545400545454008A
:10563000545454005454540054545400545454007A
:10564000545454005454540054545400558EA300E0
:105650005E9DB300609EB50062A3BA00609EB50077
:1056600066AAC30062A3BA0066AAC30066AAC30002
:1056700049798B0049798B00545454005454540098
:10568000545454005454540054545400545454002A
:10569000545454005454540054545400545454001A
:1056A000545454005454540054545400545454000A
:1056B00049798B005994A9006D797D0054545400A8
:1056C00054545400545454005454540054545400EA
:1056D0004E849700558EA300A5FDFC005454540041
:1056E00054545400545454005454540054545400CA
:1056F00054545400545454005454540054545400BA
:1057000054545400545454005454540054545400A9
:105710005994A9005E9DB30052889B0052889B005B
:105720004E8497005454540054545400545454001C
:10573000545454005454540066AAC30049798B0051
:10574000426F800054545400545454005454540034
:105750005454540054545400545454005454540059
:105760005454540054545400545454005454540049
:105770005454540049798B0076C3DC0062A3BA000C
:105780005E9DB30054545400545454005454540077
:10579000545454004E84970052889B0083D8EC00E8
:1057A0005E9DB3005994A9005454540054545400BD
:1057B00054545400545454005454540054545400F9
:1057C00054545400545454005454540054545400E9
:1057D00054545400558EA3005994A9005994A9001B
:1057E0005994A90052889B0052889B004E849700D0
:1057F00054545400545454005454540062A3BA00F6
:105800005FA0B70066AAC3004C7E910049798B0067
:105810005454540054545400545454005454540098
:105820005454540054545400545454005454540088
:10583000545454005454540049798B007ED2E800EB
:1058400062A3BA005FA0B700609EB500609EB5007D
:1058500054545400545454004E849700558EA30061
:105860006BB3CC005994A9005994A9005994A9008C
:10587000558EA300545454005454540054545400AE
:105880005454540054545400545454005454540028
:105890005454540054545400558EA300558EA30004
:1058A000558EA300558EA3005994A9005994A900C0
:1058B000558EA30052889B004E8497004C7E910029
:1058C000609EB5005FA0B700609EB50062A3BA00FD
:1058D0005FA0B70049798B0049798B00545454007C
:1058E00054545400545454005454540054545400C8
:1058F00054545400545454005454540049798B0067
:105900007ED2E80062A3BA005FA0B7005E9DB3003C
:105910005E9DB3005E9DB3005E9DB30052889B0008
:1059200052889B005994A9005994A900558EA30050
:10593000558EA300558EA300558EA30052889B0060
:10594000697C8300545454005454540054545400FB
:105950005454540054545400545454005454540057
:105960005454540054545400545454005454540047
:10597000517E90005994A9005994A9005FA0B700E6
:105980005994A9005994A9005994A9005E9DB300A7
:105990005E9DB300609EB500609EB50062A3BA0034
:1059A00049798B0049798B00545454005454540065
:1059B00054545400545454005454540054545400F7
:1059C0005454540099F7FB0062A3BA00609EB500DE
:1059D0005E9DB3005E9DB3005E9DB300426F80008C
:1059E00054545400545454005454540054545400C7
:1059F00054545400545454005454540054545400B7
:105A000054545400545454005454540054545400A6
:105A10005454540054545400545454005454540096
:105A20005454540054545400545454005454540086
:105A30005454540054545400545454005454540076
:105A40005454540054545400545454005454540066
:105A50005454540054545400545454005454540056
:105A6000545454006A6D6E004E8497005454540090
:105A70005454540054545400545454005454540036
:105A80005454540054545400545454005454540026
:105A90005454540054545400545454005454540016
:105AA0005454540054545400545454005454540006
:105AB00054545400545454005454540054545400F6
:105AC00054545400545454005454540054545400E6
:105AD00054545400545454005454540054545400D6
